:020000040800F2
:100000000030002039520008A5100008A710000891
:10001000A9100008AB100008AD1000080000000097
:10002000000000000000000000000000AF10000809
:10003000B110000800000000B3100008B51000085F
:100040008952000889520008895200088952000824
:100050008952000889520008895200088952000814
:10006000895200088952000889520008BD10000812
:10007000CD100008895200088952000889520008F2
:1000800089520008895200088952000889520008E4
:10009000DD100008895200088952000889520008C2
:1000A00089520008895200088952000889520008C4
:1000B0008952000889520008000000008952000897
:1000C000895200080000000000000000895200086A
:1000D0000000000089520008895200088952000877
:1000E000895200088952000800000000000000004A
:1000F0000000000000000000000000000000000000
:1001000000000000000000000000000000000000EF
:100110000000000000000000895200088952000819
:1001200000000000000000000000000000000000CF
:1001300000000000000000000000000000000000BF
:100140008952000889520008000000008952000806
:100150008912000889520008895200088952000853
:1001600089520008895200080000000000000000C9
:10017000000000000000000000000000000000007F
:08018000000000008952000894
:10018800830730B547D0541E002A3ED0CAB2034672
:1001980001E0013C39D303F8012B9D07F9D1032C69
:1001A8002CD9CDB205EB05250F2C05EB054535D926
:1001B800A4F1100222F00F0C03F1100EE6444FEAEE
:1001C800121C1A46C2E90055C2E90255103272459E
:1001D800F8D10CF1010214F00C0F03EB021204F039
:1001E8000F0C13D0ACF1040323F0030304331344BE
:1001F80042F8045B9342FBD10CF003042CB1C9B262
:100208001C4403F8011BA342FBD130BD64461346CE
:10021800002CF4D1F9E703461446C0E71A46A44671
:10022800E0E700BF014B1868704700BF00000020DE
:1002380070B50F4B0F4DAB42A3EB050607D0B610B8
:10024800002455F8043B01349847A642F9D805F034
:1002580019F8094D094B5E1BAB424FEAA60606D0BA
:10026800002455F8043B01349847A642F9D870BDDC
:10027800D8520008D8520008D8520008DC520008AA
:1002880008B52DED028BB0EE408A00F02FF8B4EEE1
:10029800488AF1EE10FA0FD6B5EEC08AF1EE10FAE0
:1002A8000ADCB5EE408AF1EE10FA08D1FFF7BAFF82
:1002B80022239FED090A0360BDEC028B08BDFFF7FE
:1002C800B1FFBDEC028B034621221A600348BDE84A
:1002D800084000F005B800BF000080FFD4520008B5
:1002E8009FED010A704700BF0000C07F10EE102A82
:1002F80032F000432FD0002A134633DBB2F1FF4F10
:1003080040DAB2F5000F34DB4FF0000C6448C3F359
:100318001601084400F4000282F07E520A43DB15FD
:1003280000EE102A7F3B5F4A634401F10F0CF7EEA1
:10033800007A0CEA020230EE670A03EBD05322BBC4
:10034800B5EE400AF1EE10FA62D1002B40F0908031
:100358009FED550A70479FED557ADFED537A87EE8A
:10036800270A704770EE407A9FED4F7A87EE870A2A
:100378007047DFED4F7A60EE277A6FF0180C17EEB2
:10038800903AC3E730EE000A7047F0EE007A70EE5C
:10039800277A07EE103A80EE274A4648C1F55712E9
:1003A800084402F522720243002A9FED433ADFED2A
:1003B800434ADFED435ADFED433A9FED435ADFED01
:1003C800437ADFED436A24EE046AF8EEC72A26EE84
:1003D800067AE7EE034AA7EE235AE4EE875AE5EEDB
:1003E800076AE5EE877A67EE867AE6EE877A2ADD8F
:1003F800B6EE007A20EE077A27EE007A77EE877A53
:1004080067EE847A3BBB37EE677A30EE470A70476F
:100418009FED307AF6EE007AE0EE477A20EE007A29
:1004280027EE277A002BF0D007EE903A9FED2A6A44
:10043800DFED2A6AF8EEE77AA7EEC67A37EE400AC9
:1004480097EEA60A704770EE677A67EE847AE3B98A
:1004580030EE670A70479FED206ADFED206AE2EE12
:10046800867A37EE677A37EE400A92EEA60A704728
:1004780007EE903A9FED180A9FED187AF8EEE77AA2
:1004880027EE800AA7EE870A7047DFED136A9FED13
:10049800137AE2EEE67A37EEC00A92EE870A7047E0
:1004A80020FB4A00F0FF7F0000000000000000CCA5
:1004B8000000004C305CCFFF9788173E25333A3E4A
:1004C8002549923E4FD01C3E298E633EABAA2A3F57
:1004D800CDCCCC3EABAAAA3ED1F717378071313FBD
:1004E80081F0004102E000BF83F0004330B54FEADD
:1004F80041044FEA430594EA050F08BF90EA020F4A
:100508001FBF54EA000C55EA020C7FEA645C7FEADC
:10051800655C00F0E2804FEA5454D4EB5555B8BFFF
:100528006D420CDD2C4480EA020281EA030382EA70
:10053800000083EA010180EA020281EA0303362D02
:1005480088BF30BD11F0004F4FEA01314FF4801CD5
:100558004CEA113102D0404261EB410113F0004FE7
:100568004FEA03334CEA133302D0524263EB43039E
:1005780094EA050F00F0A780A4F10104D5F1200E3C
:100588000DDB02FA0EFC22FA05F2801841F1000197
:1005980003FA0EF2801843FA05F359410EE0A5F16B
:1005A80020050EF1200E012A03FA0EFC28BF4CF09C
:1005B800020C43FA05F3C01851EBE37101F0004552
:1005C80007D54FF0000EDCF1000C7EEB00006EEB5F
:1005D8000101B1F5801F1BD3B1F5001F0CD34908E9
:1005E8005FEA30004FEA3C0C04F101044FEA445240
:1005F80012F5800F80F09A80BCF1004F08BF5FEAC7
:10060800500C50F1000041EB045141EA050130BDA6
:100618005FEA4C0C404141EB0101013C28BFB1F5B8
:10062800801FE9D291F0000F04BF01460020B1FA03
:1006380081F308BF2033A3F10B03B3F120020CDAD6
:100648000C3208DD02F1140CC2F10C0201FA0CF0B4
:1006580021FA02F10CE002F11402D8BFC2F1200C19
:1006680001FA02F120FA0CFCDCBF41EA0C019040CF
:10067800E41AA2BF01EB0451294330BD6FEA040418
:100688001F3C1CDA0C340EDC04F11404C4F1200203
:1006980020FA04F001FA02F340EA030021FA04F315
:1006A80045EA030130BDC4F10C04C4F1200220FA6C
:1006B80002F001FA04F340EA0300294630BD21FAAA
:1006C80004F0294630BD94F0000F83F4801306BF70
:1006D80081F480110134013D4EE77FEA645C18BF64
:1006E8007FEA655C29D094EA050F08BF90EA020FFB
:1006F80005D054EA000C04BF1946104630BD91EAF3
:10070800030F1EBF0021002030BD5FEA545C05D1F5
:100718004000494128BF41F0004130BD14F5800434
:100728003CBF01F5801130BD01F0004545F0FE41A8
:1007380041F470014FF0000030BD7FEA645C1ABFDD
:10074800194610467FEA655C1CBF0B46024650EA14
:10075800013406BF52EA033591EA030F41F4002140
:1007680030BD00BF90F0000F04BF0021704730B5C6
:100778004FF4806404F132044FF000054FF000019B
:1007880050E700BF90F0000F04BF0021704730B55C
:100798004FF4806404F1320410F0004548BF404231
:1007A8004FF000013EE700BF42004FEAE2014FEA86
:1007B80031014FEA02701FBF12F07F4393F07F4F61
:1007C80081F06051704732F07F4208BF704793F064
:1007D8007F4F04BF41F40021704730B54FF4607477
:1007E80001F0004521F000411CE700BF50EA01027A
:1007F80008BF704730B54FF000050AE050EA010223
:1008080008BF704730B511F0004502D5404261EB92
:1008180041014FF4806404F132045FEA915C3FF4D3
:10082800D8AE4FF003025FEADC0C18BF03325FEA70
:10083800DC0C18BF033202EBDC02C2F1200300FA21
:1008480003FC20FA02F001FA03FE40EA0E0021FA46
:1008580002F11444BDE600BF4FEA4102B2F1E043A1
:1008680024BFB3F5001CDCF1FE5C0DD901F0004C8F
:100878004FEAC0024CEA5070B2F1004F40EB8300DF
:1008880008BF20F00100704711F0804F21D113F10B
:100898003872BCBF01F00040704741F480114FEA44
:1008A8005252C2F11802C2F1200C10FA0CF320FACD
:1008B80002F018BF40F001004FEAC1234FEAD323EA
:1008C80003FA0CFC40EA0C0023FA02F34FEA430354
:1008D800CCE77FEA625307D150EA01331EBF4FF0DD
:1008E800FE4040F44000704701F0004040F0FE40F8
:1008F80040F40000704700BF10B5054C237833B9A9
:10090800044B13B10448AFF300800123237010BDDA
:100918009C010020000000008C52000808B5034B21
:100928001BB103490348AFF3008008BD0000000075
:10093800A00100208C52000800B583B00E4B5A6904
:1009480042F001025A615B6903F001030193019BC4
:10095800002211460B2003F047FC0B2003F054FC47
:10096800002211460C2003F03FFC0C2003F04CFC45
:1009780003B05DF804FB00BF0010024030B58BB037
:100988000024059406940794089409941C4B5A690A
:1009980042F480025A615A6902F480020192019A73
:1009A8005A6942F400225A615A6902F400220292FA
:1009B800029A5A6942F400325A615A6902F40032C2
:1009C8000392039A5A6942F480225A615B6903F4DC
:1009D80080230493049B0B4D22464FF44041284644
:1009E80002F068FF4FF440430593012306930794F0
:1009F800089405A9284602F07FFE0BB030BD00BF61
:100A0800001002400004004808B50F21044804F013
:100A1800D8FB72B6034B1B68FA22DA63FAE700BF09
:100A2800A0020020CC04002000B58BB0002307935F
:100A380008930993019302930393049305930693F0
:100A480029484FF0A042026043608360012202619E
:100A5800437680F820304FF48061C1624FF4E07132
:100A68008162C3600321C16180F8302004224261A1
:100A78000376436301F012FD00282BD1002307936E
:100A880007A9194802F066F830BB012301930293C5
:100A980000230493052203920593069301A91248A3
:100AA80001F0A0FED0B9022301930293052303931A
:100AB80001A90D4801F096FE90B903230193029312
:100AC8000523039301A9084801F08CFE50B90BB027
:100AD8005DF804FBFFF798FFFFF796FFFFF794FF19
:100AE800FFF792FFFFF790FF7C04002000B587B066
:100AF80000230093019302930393049305932648DC
:100B0800264A02604360836001220261437680F8CE
:100B180020304FF48061C1624FF4E0718162C3609C
:100B28000321C16180F830200422426103764363C7
:100B380001F0B4FC38BB0723009301230193002381
:100B4800039305220292049305936946124801F023
:100B580049FED0B908230093022301930523029389
:100B680069460D4801F03EFE88B909230093032326
:100B78000193052302936946074801F033FE40B903
:100B880007B05DF804FBFFF73FFFFFF73DFFFFF7F6
:100B98003BFFFFF739FF00BF2C0400200001005085
:100BA80008B50E480E4B0360022343604FF08043A4
:100BB80083600023C3604FF4402202614FF4401267
:100BC8004261037643768376C3760377437703F0EF
:100BD80047FB00B908BDFFF717FF00BF7C030020E3
:100BE8000064004010B5B0B000242C942D942E94CD
:100BF8002F945422214617A8FFF7C2FA149415948B
:100C08001694242221460BA8FFF7BAFA202221467F
:100C180003A8FFF7B5FA8448844B036044608460F6
:100C280003F0EAFF002840F0DB800C217E4804F046
:100C38004DF8002840F0D6800A217B4804F07FF860
:100C4800002840F0D1804FF47A532C9307232D933A
:100C580000212E9108232F932CAA734804F091F8B1
:100C6800002840F0C38000211791189119911A911A
:100C780001231B931C911D911E911F914FF000633E
:100C88002093219122914FF0005323932491259191
:100C980026914FF480732793289129912A912B91BB
:100CA80017AA614804F0EAF8002840F0A1804FF044
:100CB80080432A934FF480232B9317AA01215A4883
:100CC80004F0DCF8002840F095804FF44873149342
:100CD80014AB01220021544804F05AF9002840F0CE
:100CE8008B8000210B9132230C930D910E910F9163
:100CF80010931191129113910BAA4B4804F0F6F836
:100D080000287BD10BAA0121474804F0EFF80028FE
:100D180076D10021039104230493082305930691B7
:100D28000791089109910A9103AB01223E4804F00A
:100D380010FA002866D103AB042201213A4804F0D6
:100D480008FA002860D100210491059103AB022222
:100D5800354804F0FEF9002858D103AB08220121D8
:100D6800314804F0F6F9002852D12CAA01212E4866
:100D780004F007F800284DD143F68163149314ABAF
:100D880001221146284804F003F9002844D14FF401
:100D9800FA53149314AB08220021234804F0F8F8FE
:100DA80000283BD14FF4FA53149314AB02220021CC
:100DB8001D4804F0EDF898BB0023019302934FF40B
:100DC800803301934FF48063029301AA01211648EE
:100DD80003F0F0FF30BB144800F038FC30B010BD11
:100DE800FFF712FEFFF710FEFFF70EFEFFF70CFEEF
:100DF800FFF70AFEFFF708FEFFF706FEFFF704FEFF
:100E0800FFF702FEFFF700FEFFF7FEFDFFF7FCFD10
:100E1800FFF7FAFDFFF7F8FDFFF7F6FDFFF7F4FD22
:100E2800FFF7F2FDFFF7F0FDA0020020007401407B
:100E380010B592B000240F9410941194089409945A
:100E48000A940B940C940D940E94039404940594B2
:100E580006940794224BDA6942F00202DA61DA69F1
:100E680002F002020192019A5A6942F480225A6100
:100E78005B6903F480230293029B012303930223FB
:100E88000493079303A9174802F036FC1648174B3A
:100E980003604723436084604FF4FA73C3600461BE
:100EA800846102F07FFEA8B900230F9311930FA964
:100EB8000D4803F035F878B96023089300230993A7
:100EC8000A930C93082208A9074802F0D9FE28B90A
:100ED80012B010BDFFF798FDFFF796FDFFF794FDE0
:100EE8000010024000040048CC0400200004004028
:100EF80000B597B0282200210CA8FFF741F900237C
:100F08000793089309930A930B9300930193029311
:100F1800039304930593069301220C924FF48033B4
:100F28000D9310920222139214934FF4E013159329
:100F38000CA801F0F9FEE8B90F23079302210891E4
:100F4800002309934FF480620A920B9307A802F0DA
:100F58002DFA88B94FF4814300934FF480730493BA
:100F68004FF480530693684602F0F4FA30B917B08C
:100F78005DF804FBFFF748FDFFF746FDFFF744FD6A
:100F880000B58BB03B4B002483F834403A4A9A6250
:100F980083F8354001F090FEFFF7AAFFFFF7EEFC5B
:100FA800FFF7CAFCFFF740FDFFF7A0FDFFF7F8FDCC
:100FB80005940694012307930094019402940394E2
:100FC800049408930E2309932C4D6946284603F090
:100FD800EDF92B4B40F223121A605C60DC609C60D8
:100FE80008221A611C75284603F063FA08B1FFF756
:100FF8000BFDFFF7F7FD01F011F8FFF719FF214C82
:101008000821204602F0E8FE2368FA22DA63642009
:1010180001F076FE23680022DA6318221A491B4879
:1010280001F046FB28B9182219491A4801F040FB7B
:1010380008B1FFF7E9FC00221146442003F0D4F878
:10104800442003F0E1F8144C2268D2F88C3043F0C5
:101058001003C2F88C304FF4C021204604F0CDF8BC
:10106800044B012283F834200F21204604F08DF828
:10107800FEE700BF30050020000034427C0300205A
:10108800C8010020CC040020400200207C0400207D
:10109800E00100202C040020A0020020FEE7FEE76B
:1010A800FEE7FEE7FEE770477047704708B501F0B6
:1010B80015FE08BD08B5024802F0F6FF08BD00BFDE
:1010C800E803002008B5024802F0EEFF08BD00BFA3
:1010D800A403002008B5024803F0B4FA08BD00BF15
:1010E8007C03002008B5134BD3ED037AF0EEE77AC2
:1010F800B3EE047AF4EEC77AF1EE10FA15DD0E4A73
:1011080013780133DBB21370132B11D9094B032267
:1011180083F84020012283F84120002283F83420FC
:101128000F21064804F04DF802E0034B00221A7024
:1011380008BD00BF3005002019050020A0020020CE
:10114800494B93F84130002B40F08C8010B5464B4A
:1011580093ED007AF2EE087AB4EEE77AF1EE10FA3F
:1011680006D593ED017AB4EEE77AF1EE10FA48D499
:101178003D4B93ED007AF2EE0E7AB4EEE77AF1EE9B
:1011880010FA4AD4384B93ED057ADFED387AB4EE8D
:10119800E77AF1EE10FA4BDC334B93F834305BB25C
:1011A80073B3314B93ED0E7ADFED317AB4EEE77A13
:1011B800F1EE10FA24DD93ED017AD3ED007AC7EE53
:1011C800276A93ED0E6AD3ED0F7AB7EE007A37EE01
:1011D800677AC6EE077A77EEE67AF0EEE77A9FED61
:1011E800257AF4EEC77AF1EE10FA09DD224A13786F
:1011F8000133DBB21370642B25D81F4B00221A7001
:1012080010BD1C46012384F840300F211B4803F011
:10121800D8FF002384F83430AAE7012283F840205D
:10122800002283F834200F21144803F0CAFFA9E7ED
:10123800062283F84020002283F834200F210F482B
:1012480003F0BFFFA8E7084B042283F840200122DF
:1012580083F84120002283F834200F21074803F047
:10126800B0FFCDE7704700BF300500200000A04266
:10127800CDCC4C3ECDCCCC3E18050020A0020020A1
:1012880008B55F4B1B681022C3F8882000F0E6FE03
:101298005C4B1B88B3F5FA7F18D20133594A138087
:1012A800594A138801339BB21380B3F5616F10D28A
:1012B800564A13780133DBB21370232B3CD8544BB6
:1012C80093F834305BB2002B3CD108BDFFF70AFF1E
:1012D800E6E7134600221A804E4803F08DF90028ED
:1012E800E6D04B4BD3ED037A9FED4B7A67EE877AC6
:1012F800FDEEE77A17EE901AD3ED017A67EE877A5A
:10130800FDEEE77A17EE903AC1F30720434A1070D2
:101318005170C3F307219170D370414B41493D4847
:1013280003F0F5F84FF400413F4802F0C8FA3F4A8D
:10133800137801331370BBE7134600221A70FFF7C6
:10134800FFFEBCE700F0B0F9314B93F83530DBB263
:10135800042B3FD02E4B93F834305BB2042B39D09A
:101368002B4BD3ED0E7A9FED327A67EE877AFCEE3F
:10137800E77A17EE903A9BB2B3F5487F01D24FF463
:101388004873234A92ED0E7AF7EE007AB4EEE77AC4
:10139800F1EE10FA01DB43F681631D4AD2ED0F7AB4
:1013A800F5EEC07AF1EE10FA19D992ED0F7AF7EE50
:1013B800007A77EEC77A9FED1E7A67EE877AFCEEA1
:1013C800E77A17EE902A92B2B2F5C86F09D24FF4B5
:1013D800C86206E00F210A4803F0F3FE75E743F6FA
:1013E80081625808B3F5487F01D24FF4C8700449A8
:1013F8000968C1F8A400C1F89C30C1F81C2164E751
:10140800A00200201E0500201C0500201A0500204F
:10141800300500207C0300200000C842BC010020E9
:10142800C4010020C801002000040048B8010020C1
:1014380000007A4682B00A4B9A6942F001029A612A
:101448009A6902F001020092009ADA6942F0805229
:10145800DA61DB6903F080530193019B02B07047A6
:101468000010024010B58AB0044600230593069385
:101478000793089309930368B3F1A04F04D0414A36
:10148800934240D00AB010BD3F4A1368013313603D
:10149800012B2AD03D4B5A6942F400325A615B69EC
:1014A80003F400330293029B072305930323069357
:1014B80005A94FF0904002F01FF93548354B0360FD
:1014C8000023436083608022C2604FF4007202618F
:1014D8004FF40062426120228261C36102F084FD00
:1014E80070B92B4BA3635C62CCE7284B5A6942F076
:1014F80080525A615B6903F080530193019BC9E7ED
:10150800FFF782FAEDE7204A136801331360012BD5
:1015180029D01E4B5A6942F400225A615B6903F4D0
:1015280000230493049B0E2305930323069305A924
:10153800194802F0E1F81948194B03600023436089
:1015480083608022C2604FF4007202614FF400622F
:10155800426120228261C36102F046FD70B90F4BDF
:10156800A3635C628EE7094B5A6942F080525A6164
:101578005B6903F080530393039BCAE7FFF744FAC0
:10158800EDE700BF000100502005002000100240D8
:10159800E80300200800024000080048A4030020D7
:1015A8001C00024000B589B00023039304930593FF
:1015B800069307930268184B9A4202D009B05DF867
:1015C80004FB03F5D633DA6942F00072DA61DA69AE
:1015D80002F000720192019A5A6942F480225A611B
:1015E8005B6903F480230293029B4FF440730393D7
:1015F80002230493032306930923079303A90748A7
:1016080002F07AF800221146142002F0EDFD1420B1
:1016180002F0FAFDD2E700BF006400400004004871
:101628000268094B9A4200D0704782B003F51C4308
:101638009A6942F000529A619B6903F00053019342
:10164800019B02B0704700BF0074014000B587B02D
:101658000023019302930393049305930268104BAC
:101668009A4202D007B05DF804FB03F51C435A699F
:1016780042F400325A615B6903F400330093009B23
:101688004FF47063019302230293032304930D2301
:10169800059301A94FF0904002F02EF8E2E700BF51
:1016A800007401400000000010B52DED028BBC4B0A
:1016B800D3ED007A93ED037A67EE877AC3ED087A63
:1016C800D3ED017A93ED047A67EE877AC3ED077A52
:1016D800D3ED037A93ED027A77EEC77AC3ED067AF3
:1016E800D3ED067AF5EEC07AF1EE10FA6BD4AC4C75
:1016F800D4ED007A94ED067A67EE877AC4ED097A1C
:1017080094ED0B7ADFEDA77A67EE277A17EE900A49
:10171800FFF74AF8A0A3D3E90023FEF7E7FEFFF797
:101728009BF807EE900AD4ED006AB7EE007AF4EE63
:10173800C76AF1EE10FA49DD94ED017A77EE277A5F
:1017480094ED007A87EE878A954BD3ED0A7A93ED6C
:10175800097A77EEC77AB0EE087A77EEC77A93F807
:1017680034305BB2ABB18E4B93F834305BB2012BA3
:101778000FD08B4B93F834305BB2B3F1FF3F08D0F6
:10178800F4EEC77AF1EE10FA23DD854B022283F8D6
:101798003420834B93F834305BB2022B34D0032BC4
:1017A8005AD17F4BD3ED006A87EEA67AF9EE087A14
:1017B800B4EEE77AF1EE10FA01D5B0EE677A784B1D
:1017C80083ED0B7A48E000229A6190E79FED768AD4
:1017D800BAE7F5EEC07AF1EE10FA10D4F5EEC07A59
:1017E800F1EE10FAD5DBB0EE087AF4EEC77AF1EE36
:1017F80010FACED86A4B042283F83420C9E7684B24
:10180800032283F83420C4E7654B93ED0A7AF0EE9F
:10181800087A37EE677AD3ED006AC7EE267A93ED39
:10182800017AF2EE0E6A27EE267A93ED006AC7EE89
:10183800066AF4EEE67AF1EE10FA01DDF0EE667A69
:10184800B0EE007AF4EEC77AF1EE10FA01DDF0EEB0
:10185800477A534BC3ED0B7A514B93F834305BB254
:10186800022B00F08C804E4B93F834305BB2032B84
:1018780000F085804A4B93F834305BB2012B00F0BE
:10188800AD82474B93F834305BB2B3F1FF3F00F0C1
:101898000A83434B93F83530DBB2444A12789342BB
:1018A80000F084833E4B996B414A1160D96B414AE1
:1018B800116093F835103D4A117093F834203E4B6F
:1018C8001A70374BD3ED0F7A3A4B93ED007A77EED7
:1018D800C77ADFED3A6AF4EEE67AF1EE10FA40F3F1
:1018E8006F8337EE267A2E4B83ED0F7A2C4BD3ED90
:1018F8000E7A2F4B93ED007A77EEC77ADFED2F6AD9
:10190800F4EEE67AF1EE10FA40F36A8337EE267ABF
:10191800234B83ED0E7A224B93ED0E7AF7EE007A85
:10192800B4EEE77AF1EE10FA01DDC3ED0E7A1C4B46
:10193800D3ED0E7AF5EEC07AF1EE10FA00F160837D
:10194800174B93ED0F7ADFED1E7AB4EEE77AF1EEDE
:1019580010FA01DDC3ED0F7A114BD3ED0F7AF5EED6
:10196800C07AF1EE10FA00F14E830D4B996B104AD4
:101978001160DA6B0F4B1A60BDEC028B10BD084B7F
:1019880093F83530DBB2032B29D8DFE803F01B547A
:101998008C7000BFAFF300809A9999999999D93FB3
:1019A800300500209A99993E00000000540000205C
:1019B80050000020240500202C05002017B7D1383E
:1019C8006666663FA54B93ED017AF3EE057AB4EEB1
:1019D800E77AF1EE10FA02DD012283F835209F4BF9
:1019E80093F83530DBB29E4A1278934202D09B4B73
:1019F80000221A63994B93F8342052B2994B1B7802
:101A08009A420BD0954A00211163032B67D0022B11
:101A18006FD0042B78D0042B00F085808F4B93F87F
:101A280034305BB2022B00F08E80032B00F0D5809F
:101A3800DFED8D7AC1E0894B93ED017AF3EE047AFC
:101A4800B4EEE77AF1EE10FA03D5002283F83520D8
:101A5800C5E7824B93ED017ADFED847AB4EEE77A3D
:101A6800F1EE10FABBDD042283F83520B7E77B4B93
:101A780093ED017AF3EE057AB4EEE77AF1EE10FA17
:101A880003DD022283F83520A9E7744B93ED017A30
:101A9800F2EE067AB4EEE77AF1EE10FA9FD5042258
:101AA80083F835209BE76D4B93ED017AF3EE047ACA
:101AB800B4EEE77AF1EE10FA03D5032283F8352065
:101AC8008DE7664B93ED017ADFED687AB4EEE77A3D
:101AD800F1EE10FA83DD042283F835207FE792F8CF
:101AE800342052B2022A92D15C4B012283F834206E
:101AF80094E75A4A92F8342052B2032A89D1574BB4
:101B0800FF2283F8342089E7544A92F8342052B2ED
:101B1800022A80D1514B012283F834200F215448E6
:101B280003F033FB7AE74D4B93F834305BB2032B69
:101B38007FF474AF494BFF2283F834200F214C48BF
:101B480003F023FB6AE7454B93F83530DBB2012BF2
:101B580040D0424B93F83530DFED467A3F4B93ED5A
:101B68000B7AD3ED036A37EE667AD3ED0C6A9FEDF4
:101B7800426A27EE066A76EE866AC3ED0C6A93ED32
:101B88000C6ADFED3E6AB4EEE66AF1EE10FA01DDAA
:101B9800C3ED0C6A314B93ED0C6ADFED396AB4EE94
:101BA800E66AF1EE10FA01D5C3ED0C6A67EE877AA2
:101BB8002A4B93ED0C7A77EE877A284B93F83530D9
:101BC800DBB2032B3FF656AEDFE813F09200C200FB
:101BD800E900E100DFED2B7AC0E7204B93F83530C0
:101BE800DBB2022B08D01D4B93F83530DBB2032B48
:101BF8004CD0DFED1D7AE0E7184BD3ED0B7A93ED6F
:101C0800027A77EEC77A93ED0C7ADFED1B6A67EEFE
:101C1800A66A37EE267A83ED0C7AD3ED0C6A9FED2F
:101C2800177AF4EEC76AF1EE10FA01DD83ED0C7A4B
:101C38000A4BD3ED0C6A9FED127AF4EEC76AF1EE07
:101C480010FA01D583ED0C7A9FED0F7A67EE877A4B
:101C5800024B93ED0C7A77EE877AAEE730050020D9
:101C6800540000202C050020000000000000EC417A
:101C7800A00200206F12833917B75139CDCC4C3EE2
:101C8800CDCC4CBE6F12833A6F12033ABC4BD3EDE6
:101C98000B7A93ED027A77EEC77A93ED0C7ADFED43
:101CA800B96A67EEA66A37EE267A83ED0C7AD3ED29
:101CB8000C6A9FEDB57AF4EEC76AF1EE10FA01DD11
:101CC80083ED0C7AAE4BD3ED0C6A9FEDB07AF4EE4F
:101CD800C76AF1EE10FA01D583ED0C7A9FEDAC7A64
:101CE80067EE877AA64B93ED0C7A77EE877A64E7EE
:101CF800A34B0022DA63D3ED016AB1EE047AF4EE65
:101D0800C76AF1EE10FA1DD5A24C2068FEF74CFD0B
:101D180099A3D3E90023FEF7E9FBFEF79DFD07EE43
:101D2800900A20609FED9C7AF4EEC77AF1EE10FAE3
:101D380001DD84ED007A974B1A68914B9A63002273
:101D48001A6397E577EE887A8D4BC3ED0E7A91E5A5
:101D58008B4B924A9A6393ED0E7AD3ED006A27EE85
:101D6800267A93ED016AC7EE066AB7EE007A37EE77
:101D7800667AB5EEC07AF1EE10FA05D477EE877A76
:101D88007F4BC3ED0F7A75E59FED857AF6E77C4BBF
:101D98000022DA6377EE887AC3ED0E7A6AE5784B2B
:101DA800804A9A6393ED0E7AD3ED006A27EE267A7D
:101DB80093ED016AC7EE066AB7EE007A37EE667AE7
:101DC800B5EEC07AF1EE10FA05D477EE877A6C4B4F
:101DD800C3ED0F7A4EE59FED727AF6E7684B93ED07
:101DE800017AF3EE047AB4EEE77AF1EE10FA12D53E
:101DF800002283F83520624B93F8353083BB604B63
:101E080083ED0E8A0022DA635D4B00221A630222F8
:101E180083F834203DE55A4B93ED017AF3EE047ACA
:101E2800B4EEE77AF1EE10FA0CDB93ED017ADFED10
:101E38005E7AB4EEE77AF1EE10FA03D5012283F860
:101E48003520D8E74E4B93ED017ADFED577AB4EEA3
:101E5800E77AF1EE10FACEDB042283F83520CAE7E0
:101E6800474B93F83530DBB2012BCDD1444B4B4A6D
:101E78009A63D3ED0E7A93ED007A67EE877AD3ED05
:101E8800016A87EEA67AF7EE007A77EEC77AF5EE62
:101E9800C07AF1EE10FA03D4394BC3ED0F7AB3E7E9
:101EA800DFED3F7AF8E7364B93ED017AF3EE047AEB
:101EB800B4EEE77AF1EE10FA15D5032283F835204F
:101EC8002F4B93F83530DBB2032B31D02C4B93F8E2
:101ED8003530DBB2022B31D0294B00221A630322A2
:101EE80083F83420D5E4264B93ED017AF3EE047A97
:101EF800B4EEE77AF1EE10FA0CDB93ED017ADFED40
:101F08002A7AB4EEE77AF1EE10FA03D5022283F8C2
:101F18003520D5E71A4B93ED017ADFED237AB4EE3D
:101F2800E77AF1EE10FACBDB042283F83520C7E715
:101F3800134B83ED0E8A0022DA63CDE7104B194A62
:101F48009A63D3ED0E7A93ED007A67EE877AD3ED34
:101F5800016A87EEA67AF7EE007A77EEC77AF5EE91
:101F6800C07AF1EE10FA03D4054BC3ED0F7AB3E74C
:101F7800DFED0B7AF8E700BF48AFBC9AF2D78A3E8C
:101F88003005002017B75139CDCC4C3ECDCC4CBED6
:101F9800ACC5A738280500209A99993EF6285C3FD9
:101FA80000000000CDCC4C3F0000EC41174B93F8EB
:101FB80034305BB2164A127893427FF473AC80E4F3
:101FC800DFED146AF4EEE67AF1EE10FA7FF58EACE6
:101FD800DFED117A37EE677A0C4B83ED0F7A85E4E3
:101FE800DFED0C6AF4EEE67AF1EE10FA7FF593ACC9
:101FF800DFED097A37EE677A044B83ED0E7A8AE4CF
:1020080000229A639CE40022DA63AEE430050020E3
:102018002C05002017B7D1B817B7D138084B0022C4
:102028001A700023074A1360074A1360074A1360AF
:10203800074A1360074A1360074A1360704700BFD6
:10204800760500208C0500208805002084050020E6
:10205800800500207C050020780500202DE9F0414E
:1020680000231D4618469E469C461E461C4619E0FF
:1020780003EB4302904951F822703C4402F10108F5
:1020880051F828703E44971C51F827108C448B490E
:1020980051F82220964451F82820154451F8272059
:1020A80010440133072BE3DDE30806EE103AB8EEDF
:1020B800466AF30805EE903AF8EE655A4FEADC03F3
:1020C80007EE103AB8EE477A4FEADE0306EE903A8A
:1020D800F8EE666AC30807EE903AF8EE677AED08FC
:1020E80005EE105AB8EE455ADFED754A26EE246A19
:1020F8009FED743A26EE036AB6EE004A36EE046A9D
:1021080065EEA45AF3EE093A65EEA35A9FED6E4ABE
:1021180075EEC45A27EE247A27EE237A37EE447AEE
:1021280066EEA46A66EEA36A76EEC46A67EEA47ADF
:1021380067EE837ADFED654A77EEA47A644B1B7805
:102148008BB9644B83ED006A634BC3ED005A634B54
:1021580083ED007A624BC3ED006A624BC3ED007AEF
:102168005B4B01221A705C4BD3ED004ADFED5E3AFF
:1021780064EEA34A9FED5D4A65EE845A74EEA54A63
:10218800C3ED004A534BD3ED005A65EEA35A26EE31
:10219800046A75EE865AC3ED005A514B93ED006AF6
:1021A80026EE236A66EE846A76EE266AC3ED006A36
:1021B8004A4B93ED006A26EE236A27EE047A36EE40
:1021C800077A83ED007A474B93ED006A26EE236A7F
:1021D80067EE847A76EE277AC3ED007A444BC3ED36
:1021E800034AC3ED005AD3ED005AB7EE006AF4EE85
:1021F800C65AF1EE10FA28D43D4BC3ED017A83EDAF
:10220800027AC3ED046A3B4A138801339BB21380F8
:1022180044F61F62934216D9364B00221A809FED6E
:10222800367A25EE077ADFED357A77EEC57AC7EE8E
:10223800276AF5EEC06AF1EE10FA09DC4FF4804126
:102248002F4801F03CFBBDE8F08100221A60D3E77B
:102258009FED290A86EE800AFEF712F89FED297A8B
:10226800C0EE077A9FED287A77EE877AF7EE006A54
:1022780086EEA77ADFED257A37EE677A244BD3ED21
:10228800007AF5EE407AF1EE10FA01D183ED007A8A
:102298001F4BD3ED007ADFED1F6A67EEA67ADFEDFC
:1022A8001E6A27EE267A77EE877AC3ED007A104BFE
:1022B800C3ED057AC2E700BF40020020E00100201C
:1022C8003333533A9A9921419A9920429A99193F5E
:1022D800760500208C050020880500208405002054
:1022E800800500207C0500206666663FCDCCCC3D8D
:1022F800300500207405002000401C460000804581
:102308000004004800E076450FCF5B3B33938843D9
:1023180078050020CDCC4C3ECDCC4C3F7047704763
:10232800704738B50268936803F00303012B01D0A6
:10233800002038BD0446136813F0010F33D09368AA
:1023480003F00D03012B09D0036C43F01003036461
:10235800436C43F0010343640120EAE7936843F0C8
:1023680002039360036803221A6000F0C3FC054669
:1023780023689B6813F0010F13D000F0BBFC401BCF
:102388000228F5D923689B6813F0010FF0D0236C5D
:1023980043F010032364636C43F00103636401207A
:1023A800C7E70020C5E70020C3E7000038B50446AA
:1023B8000268936803F00303012B0DD091681A4B50
:1023C80019420FD0236C43F010032364636C43F06D
:1023D80001036364012038BD136813F0010FEDD0C9
:1023E8000020F8E7936843F00103936000F082FC53
:1023F800054623681B6813F0010F13D100F07AFC1F
:10240800431B022BF5D923681B6813F0010FF0D189
:10241800236C43F010032364636C43F0010363648B
:102428000120D8E70020D6E73F00008008B5406AC1
:10243800036C43F040030364436C43F004034364B8
:10244800FFF76EFF08BD08B5406AFFF768FF08BDD3
:1024580008B5436A1A6C12F0500F1AD11A6C42F47C
:1024680000721A641A68D26812F4406F0DD15A7E4D
:102478005AB91A6C22F480721A641A6C12F4805FCA
:1024880003D11A6C42F001021A641846FFF746FF9E
:1024980008BD9B6B1B6B9847FAE7000030B597B0F7
:1024A80000230193002800F0F7800446036C13F022
:1024B800100F52D1036CABB1002023689A6812F058
:1024C800805F03D09B6813F0005F47D0236C23F034
:1024D800120343F010032364636C43F00103636445
:1024E80001203BE04364C364836480F83C30FEF71A
:1024F800B9FF23689B6813F0805F01D00020DCE7F8
:102508002046FFF70EFF236C13F0100FD5D10028DB
:10251800D3D1236C23F4885323F0020343F002033E
:1025280023642268936823F0405393602268936879
:1025380043F080539360594B1B68594AA2FB03230D
:102548009B0C03EB83035B00019302E0019B013BBF
:102558000193019B002BF9D1AFE70020236C13F006
:10256800100F40F09080002840F08D802368996813
:1025780011F0040140F08780226C22F4817242F04D
:1025880002022264B3F1A04F54D04FF0A04202924D
:102598009A6802F00302012A4FD0029B23B19A687D
:1025A80002F00302012A4DD03E4A936823F44033D7
:1025B80065682B439360627E5303656B012D01D0E0
:1025C8004FF480510B43E1680B43A1680B4394F827
:1025D800201001293BD0A26A012A02D0E16A0A43ED
:1025E80013432268916811F00C0F0CD1D16821F4C3
:1025F800804121F00201D160217E94F83020520000
:1026080042EA813213432168CD68274A2A401A4397
:10261800CA602369012B2DD02268136B23F00F03A6
:10262800136300236364236C23F0030343F0010363
:1026380023642FE01D4A0292AAE71B6813F0010FDA
:10264800B9D1AAE71B6813F0010FB4D1ACE732B9CE
:10265800626A013A43EA424242F48033BBE7226CA1
:1026680022F0220242F020022264626C42F001024F
:102678006264B0E721680B6B23F00F03E269013A4B
:1026880013430B63CDE7236C23F0120343F01003CD
:102698002364012017B030BD0120FBE75C00002057
:1026A80083DE1B430003005007C0F0FF0001005009
:1026B800F8B504460068806810F0040F40F0838085
:1026C8000E46154694F83C30012B7ED0012384F841
:1026D8003C303F4B9B6813F01F0F05D0002384F854
:1026E8003C3001273846F8BD2046FFF75FFE074615
:1026F800002864D1236C23F4706323F0010343F4AE
:1027080080732364324B9B6813F01F0F17D0226825
:10271800B2F1A04F13D0236C43F4801323642D4BE4
:102728009A421BD14FF0A043DB6813F0007F15D00D
:10273800236C23F4405343F4805323640EE0236C4A
:1027480023F4801323642368DB6813F0007F05D02B
:10275800236C23F4405343F480532364236C13F411
:10276800805F29D0636C23F006036364002384F838
:102778003C30A36B184A9A62A36B184ADA62A36BBF
:10278800174A1A6323681C221A602268536843F0A8
:10279800100353602268D36843F00103D3602168B3
:1027A8002B4632464031A06B01F044FC2268936806
:1027B80043F00403936095E700236364D6E700239E
:1027C80084F83C308EE702278CE702278AE700BFAF
:1027D8000003005000010050592400084F2400084D
:1027E8003524000830B496B00022019290F83C20BD
:1027F800012A00F0A5810346012280F83C200068E8
:10280800826812F0040F40F090814A68042A35D893
:10281800046B02EB420252004FF01F0C0CFA02FC50
:1028280024EA0C0C0C6894404CEA0404046318680D
:10283800826812F00C0F6BD10A68092A4FD9846993
:1028480002EB42021E3A4FF0070C0CFA02FC24EA93
:102858000C048D6805FA02F22243826148691C68FB
:10286800E268C2F3C102520090400A69013A032AA1
:1028780000F28D80DFE802F0426A7580092A10D8DC
:10288800446B02EB420252001E3A4FF01F0C0CFA46
:1028980002FC24EA0C040D6805FA02F222434263A2
:1028A800C5E70E2A0DD8846B02EB420252003C3A6F
:1028B8001F25954024EA05040D6895402C43846340
:1028C800B5E7C46B02EB420252005A3A1F25954005
:1028D80024EA05040D6895402C43C463A7E74469BE
:1028E80002EB42024FF0070C0CFA02FC24EA0C043B
:1028F8008D6805FA02F222434261AFE7256E914ADC
:102908002A400D6840EA85652A4342F00042226663
:102918001868826802F00302012A68D0CA68012A8E
:102928006BD0D0F8B02001240D68AC4022EA040234
:10293800C0F8B0200A68102A00F08680112A00F03A
:10294800A480122A00F0A7800020F3E0656E7D4A7B
:102958002A400D6840EA85652A4342F000426266D3
:10296800D6E7A56E774A2A400D6840EA85652A436E
:1029780042F00042A266CBE7E26E724D15400A684B
:1029880040EA8262154345F00045E566C0E7226EDD
:1029980002F0F8420868B2EB806F03D1226E22F091
:1029A800004222661A68506E00F0F8400C68B0EBDE
:1029B800846F03D1506E20F0004050661A68906E04
:1029C80000F0F8400C68B0EB846F03D1906E20F0F3
:1029D800004090661A68D06E00F0F8400C68B0EBC2
:1029E800846F95D1D06E20F00040D06690E70268E1
:1029F80012F0010F92D000209CE0D0F8B0200D68B2
:102A08000124AC402243C0F8B0200A68092A0DD935
:102A18001D68A86902EB42021B3A0724944020EA89
:102A280004008C6894402043A86183E71D686869A6
:102A3800013202EB42020724944020EA04008C6829
:102A480094402043686175E73F49896811F4000F95
:102A58007FF474AF1868B0F1A04F23D04FF0A041B5
:102A68000291816801F0030101291ED0029921B168
:102A78008C6804F00304012C21D0102A24D0112AD8
:102A880042D0122A4AD0002054E02F49896811F018
:102A9800807FDFD055E72C49896811F4800FD9D0A1
:102AA800002047E029490291DBE7016811F0010F96
:102AB800DCD01A6C42F020021A6401203AE009685E
:102AC80011F0010FF5D1D8E7B0F1A04FD7D11E49C9
:102AD8008A6842F400028A601D4A1268A1F14E61B8
:102AE800A1F58421A1F27D41A1FB0212920C02EB17
:102AF80082025200019202E0019A013A0192019A7F
:102B0800002AF9D1002015E0B0F1A04FB9D10E4943
:102B18008A6842F080728A6000200BE00A498A685D
:102B280042F480028A60002004E01A6C42F020021D
:102B38001A640120002283F83C2016B030BC70478C
:102B48000220FAE700F0FF83000300500001005064
:102B58005C00002030B494B003460268B2F1A04F84
:102B68003DD04FF0A04000900098002876D093F810
:102B78003CC0BCF1010F73D04FF0010C83F83CC08E
:102B8800926812F0040F5ED1826812F0040F5AD1D5
:102B98000A68002A32D0334CA26822F4604293F8C3
:102BA80030C04D6845EA4C3C42EA0C02A2601C6801
:102BB800A26802F00302012A14D0826802F003021C
:102BC800012A15D0274CA26822F4716222F00F0264
:102BD8000868896801430A43A260002038E0224857
:102BE8000090C1E7226812F0010FE6D000202FE024
:102BF800026812F0010FE5D0002029E019498A681F
:102C080022F460428A6019688A6802F00302012A85
:102C18000DD0826802F00302012A0ED011498A6899
:102C280022F4716222F00F028A60002010E00A6824
:102C380012F0010FEDD000200AE0026812F0010F37
:102C4800ECD0002004E01A6C42F020021A64012043
:102C5800002283F83C2014B030BC70470120FAE70A
:102C68000220F8E7000300500001005010B50446A8
:102C78000E4B1A784FF47A73B3FBF2F30C4A1068D0
:102C8800B0FBF3F001F0CEFA68B90F2C01D901209E
:102C98000AE0002221464FF0FF3001F0A5FA054B6B
:102CA8001C60002000E0012010BD00BF550000207E
:102CB8005C0000205800002008B5074A136843F05C
:102CC80010031360032001F07DFA0F20FFF7CEFFF9
:102CD800FEF7B0FB002008BD00200240034A11683F
:102CE800034B1B780B441360704700BF900500200E
:102CF80055000020014B1868704700BF9005002060
:102D080038B50446FFF7F6FF0546B4F1FF3F02D099
:102D1800044B1B781C44FFF7EDFF401BA042FAD37D
:102D280038BD00BF55000020002800F0FF8270B5B4
:102D380082B00446036813F0010F3BD0B44B5B68C4
:102D480003F00C03042B1ED0B14B5B6803F00C039B
:102D5800082B13D06368B3F5803F68D0002B40F090
:102D6800928003F1804303F504331A6822F4803219
:102D78001A601A6822F480221A605DE0A44B5B682E
:102D880013F4803FE6D04FF4003393FAA3F3A04B3B
:102D980019684FF4003393FAA3F3B3FA83F303F0FB
:102DA8001F03012202FA03F30B4203D06368002BCE
:102DB80000F0BE82236813F0020F00F0C480944B29
:102DC8005B6813F00C0F00F09C80914B5B6803F07C
:102DD8000C03082B00F08F802369002B00F0F08093
:102DE800012292FAA2F3B3FA83F303F1845303F5B1
:102DF80084139B001A60FFF77DFF0546022393FAB0
:102E0800A3F3834B1968022393FAA3F3B3FA83F36A
:102E180003F01F03012202FA03F30B4240F0C280C1
:102E2800FFF768FF401B0228E8D9032089E2784AA7
:102E3800136843F480331360754AD36A23F00F0391
:102E4800A1680B43D3626368002B36D0FFF752FFAB
:102E580005464FF4003393FAA3F36D4B19684FF40A
:102E6800003393FAA3F3B3FA83F303F01F030122A9
:102E780002FA03F30B429DD1FFF73CFF401B642885
:102E8800E7D903205DE2B3F5A02F09D0604B1A689B
:102E980022F480321A601A6822F480221A60CBE782
:102EA80003F18043A3F53C331A6842F480221A6088
:102EB8001A6842F480321A60BEE7FFF71BFF054626
:102EC8004FF4003393FAA3F3514B19684FF40033CE
:102ED80093FAA3F3B3FA83F303F01F03012202FA70
:102EE80003F30B423FF466AFFFF704FF401B64286F
:102EF800E6D9032025E2464B5B6813F4803F7FF454
:102F08006BAF022393FAA3F3414B1968022393FA98
:102F1800A3F3B3FA83F303F01F03012202FA03F3C6
:102F28000B4203D02369934240F004823848036877
:102F380023F0F8036169F82292FAA2F2B2FA82F257
:102F480091400B430360236813F0080F00F08C8056
:102F5800A369002B60D0012191FAA1F2B2FA82F2A2
:102F68002C4B13449B001960FFF7C4FE054602234F
:102F780093FAA3F293FAA3F293FAA3F2244A516ABA
:102F880093FAA3F3B3FA83F303F01F03012202FABF
:102F980003F30B4268D1FFF7ADFE401B0228E6D9C8
:102FA8000320CEE11A48036823F0F8036169F82288
:102FB80092FAA2F2B2FA82F291400B430360C2E79E
:102FC800012393FAA3F3B3FA83F303F1845303F5CC
:102FD80084139B0000221A60FFF78CFE054602232B
:102FE80093FAA3F30A4B1968022393FAA3F3B3FAEB
:102FF80083F303F01F03012202FA03F30B42A2D06A
:10300800FFF778FE401B0228E9D9032099E100BFA9
:103018000010024020819010012292FAA2F2B2FA26
:1030280082F2B74B13449B0000221A60FFF762FE3E
:103038000546022393FAA3F293FAA3F293FAA3F2B2
:10304800B04A516A93FAA3F3B3FA83F303F01F0368
:10305800012202FA03F30B4206D0FFF74BFE401B96
:103068000228E6D903206CE1236813F0040F00F06E
:10307800A980A44BDB6913F0805F20D1A14BDA69EA
:1030880042F08052DA61DB6903F080530193019BBF
:1030980001259D4B1B6813F4807F12D0E368012B38
:1030A80023D073BB03F1804303F504331A6A22F07B
:1030B80001021A621A6A22F004021A621AE0002552
:1030C800E7E7914A136843F480731360FFF712FE31
:1030D80006468D4B1B6813F4807FDFD1FFF70AFE8D
:1030E800801B6428F5D903202BE1864A136A43F034
:1030F80001031362E368002B3CD0FFF7FBFD064693
:103108002EE0052B09D07F4B1A6A22F001021A62C1
:103118001A6A22F004021A62ECE77A4B1A6A42F041
:1031280004021A621A6A42F001021A62E2E70223F2
:1031380093FAA3F3734B596A022393FAA3F3B3FAEE
:1031480083F303F01F03012202FA03F3194238D173
:10315800FFF7D0FD801B41F28833984200F2EC80E3
:10316800022393FAA3F293FAA3F3002BDFD0654B63
:10317800196AE1E7FFF7BEFD064618E0022393FA55
:10318800A3F3604B596A022393FAA3F3B3FA83F3C8
:1031980003F01F03012202FA03F3194211D0FFF7CB
:1031A800A9FD801B41F28833984200F2C7800223B0
:1031B80093FAA3F293FAA3F3002BDFD0514B196AC9
:1031C800E1E7B5BBE369002B00F0BA804D4A5268CD
:1031D80002F00C02082A00F09980022B2FD04FF041
:1031E800807393FAA3F3B3FA83F303F1845303F5DB
:1031F80084139B0000221A60FFF77CFD04464FF001
:10320800007393FAA3F33F4B19684FF0007393FAD6
:10321800A3F3B3FA83F303F01F03012202FA03F3C3
:1032280019426BD0FFF766FD001B0228E7D903207F
:1032380087E0344AD36923F08053D361C2E74FF063
:10324800807393FAA3F3B3FA83F303F1845303F57A
:1032580084139B0000221A60FFF74CFD05464FF0CF
:10326800007393FAA3F3274B19684FF0007393FA8E
:10327800A3F3B3FA83F303F01F03012202FA03F363
:10328800194206D0FFF736FD401B0228E7D9032074
:1032980057E01C494B6823F47413626A206A02439E
:1032A80013434B604FF0807393FAA3F3B3FA83F39D
:1032B80003F1845303F584139B0001221A60FFF77E
:1032C80019FD04464FF0007393FAA3F30D4B1968E8
:1032D8004FF0007393FAA3F3B3FA83F303F01F03D9
:1032E800012202FA03F3194206D1FFF703FD001B7E
:1032F8000228E7D9032024E0002022E0002020E073
:10330800208190100010024000700040012B1AD05C
:10331800104B5B6803F48031226A914215D103F4A3
:103328007013626A934212D100200AE001207047AC
:10333800012006E0012004E0032002E0032000E071
:10334800002002B070BD0120FBE70120F9E7012051
:10335800F7E700BF001002400F4B5B6803F00C0258
:10336800082A01D00D487047C3F383420C49885C92
:10337800094AD26A02F00F020A498A5C13F4803FB4
:1033880005D0064BB3FBF2F303FB00F07047064B86
:1033980003FB00F0704700BF0010024000127A00E3
:1033A800B4520008A452000800093D00002800F0AB
:1033B800BE8070B50D460446614B1B6803F00703D9
:1033C8008B420BD25E4A136823F007030B4313604A
:1033D800136803F007038B4240F0AB80236813F0B7
:1033E800020F06D0574A536823F0F003A1680B4335
:1033F8005360236813F0010F5AD06368012B2DD056
:10340800022B40D0022292FAA2F24E4A10680222FF
:1034180092FAA2F2B2FA82F202F01F02012101FA34
:1034280002F2104200F0878046494A6822F00302FF
:1034380013434B60FFF75EFC0646424B5B6803F0A4
:103448000C036268B3EB820F32D0FFF753FC801B8A
:1034580041F288339842F0D9032067E04FF40032F4
:1034680092FAA2F2374A10684FF4003292FAA2F2A6
:10347800B2FA82F202F01F02012101FA02F20242BC
:10348800D2D1012052E04FF0007292FAA2F22D4AF6
:1034980010684FF0007292FAA2F2B2FA82F202F0C9
:1034A8001F02012101FA02F21042BDD101203DE0C4
:1034B800234B1B6803F00703AB420AD9204A136861
:1034C80023F007032B431360136803F00703AB4291
:1034D80033D1236813F0040F06D01A4A536823F433
:1034E800E063E1680B435360236813F0080F07D0CB
:1034F800144A536823F46053216943EAC1035360B3
:10350800FFF72AFF0F4B5B6803F0F003F02292FAF3
:10351800A2F2B2FA82F2D3400B4AD35CD8400B4BEA
:1035280018600B4B1868FFF7A1FB002070BD012045
:1035380070470120FAE70120F8E70120F6E700BF0D
:103548000020024000100240C45200085C00002025
:1035580058000020F0B583B00446036813F4803F98
:1035680044D0624BDB6913F0805F78D15F4BDA6936
:1035780042F08052DA61DB6903F080530193019BCA
:1035880001255B4B1B6813F4807F6AD0574B1B6A7D
:1035980013F4407321D0626802F440729A421CD03E
:1035A8005248016A21F440764FF4803393FAA3F22B
:1035B800B2FA82F24F4F3A4492004FF0010CC2F82F
:1035C80000C093FAA3F3B3FA83F33B449B000022B1
:1035D8001A60066211F0010F57D1444A136A23F4A6
:1035E800407361680B431362002D74D1236813F094
:1035F800010F06D03D4A136B23F00303A1680B4368
:103608001363236813F0200F06D0384A136B23F096
:103618001003E1680B431363236813F0800F06D08F
:10362800324AD36A23F4F87321690B43D3622368BF
:1036380013F4805F06D02D4A136B23F480736169FD
:103648000B431363236813F4804F4BD0274A136B43
:1036580023F48053A1690B431363002043E0002542
:103668008FE7234A136843F480731360FFF742FB24
:1036780006461F4B1B6813F4807F87D1FFF73AFB80
:10368800801B6428F5D903202DE0FFF733FB06469D
:1036980017E0022393FAA3F3144B596A022393FA0F
:1036A800A3F3B3FA83F303F01F03012202FA03F32F
:1036B8000B4292D1FFF71EFB801B41F288339842E0
:1036C8000ED8022393FAA3F293FAA3F3002BE0D0C7
:1036D800064B196AE2E7D36923F08053D36185E783
:1036E800032000E0002003B0F0BD00BF001002403E
:1036F8000070004000819010F0B583B0002362E0B4
:1037080085685E000324B44025EA0405CC68B4400B
:103718002C438460456825EA0C054C68C4F3001402
:103728009C402C4344605FE0DD08083550F8254094
:1037380003F0070C4FEA8C0C4FF00F0E0EFA0CFE3C
:1037480024EA0E0E0C6904FA0CF444EA0E0440F85C
:10375800254060E0032400E0002404FA0EF42C4322
:103768000CF1020C4F4D45F82C404F4CA568D44342
:1037780025EA02064F6817F4801F01D042EA0506C1
:10378800494DAE60ED6804EA05064F6817F4001F5E
:1037980001D042EA0506444DEE606D6804EA05066C
:1037A8004F6817F4003F01D042EA05063E4D6E60AF
:1037B8002D682C404E6816F4803F01D042EA05047B
:1037C800394A146001330A6832FA03F468D04FF0BA
:1037D800010C0CFA03FC1CEA0202F3D04C6804F05A
:1037E8000304013C012C8BD94C6804F00304032C1E
:1037F8000CD0C4685D004FF0030C0CFA05FC24EAF9
:103808000C0C8C68AC4044EA0C04C4604C6804F0AE
:103818000304022C88D004684FEA430E4FF0030CCF
:103828000CFA0EFC24EA0C0C4C6804F0030404FAAD
:103838000EF444EA0C0404604C6814F4403FC1D010
:103848001A4CA56945F00105A561A46904F00104B5
:103858000194019C4FEA930C0CF10205114C54F8A9
:10386800255003F0030E4FEA8E0E0F2404FA0EF4CF
:1038780025EA0405B0F1904F3FF46EAF0C4CA0421E
:103888000AD004F58064A04208D004F58064A04200
:103898003FF460AF052460E701245EE702245CE79B
:1038A80003B0F0BD000001400004014000100240D8
:1038B800000400480AB1816170478162704743691A
:1038C80001EA030221EA030141EA024181617047EA
:1038D80030B4026A036A23F001030362446883690F
:1038E80023F4803323F073030D681D4322F0020292
:1038F8008B681343184A90420BD002F5A0529042AD
:1039080007D002F58062904203D002F580629042AF
:1039180005D123F00803CA681A4322F004030E4AAB
:1039280090420BD002F5A052904207D002F5806277
:10393800904203D002F58062904205D124F440748D
:103948004A6922438C691443446085614A6842632A
:10395800036230BC704700BF002C014030B4036ADA
:10396800026A22F4807202624268C46924F4803CCC
:103978002CF0730C0C6844EA0C0523F400738C6873
:1039880043EA0423124CA0420BD0124CA0420FD0A1
:1039980004F58064A0420BD004F58064A0420FD1E6
:1039A80006E023F40063CC6843EA042323F480632D
:1039B80022F440524C6942EA04128C6942EA041229
:1039C8004260C5614A68C263036230BC704700BF89
:1039D800002C01400040014030B4026A036A23F41D
:1039E800805303624468C36923F0807323F4E64379
:1039F8000D6843EA052322F400528D6842EA053235
:103A08000D4DA8420BD005F5A055A84207D005F5E5
:103A18008065A84203D005F58065A84204D124F446
:103A280080444D6944EA85144460C3614B6803646B
:103A3800026230BC704700BF002C014030B4036AFA
:103A4800026A22F4803202624468426D22F48032B3
:103A580022F070020D682A4323F400338D6843EA8C
:103A680005430D4DA8420BD005F5A055A84207D037
:103A780005F58065A84203D005F58065A84204D104
:103A880024F480344D6944EA0524446042654A6858
:103A98008265036230BC7047002C014030B4026A72
:103AA800036A23F4801303624468436D23F0807330
:103AB80023F4E0430D6843EA052322F400128D68DD
:103AC80042EA05520D4DA8420BD005F5A055A84273
:103AD80007D005F58065A84203D005F58065A842A2
:103AE80004D124F480244D6944EA85244460436564
:103AF8004B68C365026230BC704700BF002C0140B0
:103B0800704700000368264A904206D0B0F1804F03
:103B180003D0A2F59432904203D123F070034A688F
:103B280013431F4A904212D0B0F1804F0FD0A2F534
:103B3800943290420BD002F59E32904207D002F5A3
:103B48008062904203D002F58062904203D123F450
:103B58004073CA68134323F080034A691343036020
:103B68008B68C3620B6883620D4B98420BD003F5D8
:103B7800A053984207D003F58063984203D003F519
:103B88008063984201D10B69036301234361036990
:103B980013F0010F03D0036923F001030361704799
:103BA800002C014060B310B5044690F83D3013B3C3
:103BB800022384F83D30214651F8040BFFF7A2FF99
:103BC800012384F8483084F83E3084F83F3084F884
:103BD800403084F8413084F8423084F8433084F827
:103BE800443084F8453084F8463084F8473084F807
:103BF8003D30002010BD80F83C30FFF781FFD7E74B
:103C08000120704730B4036A026A22F0100202628F
:103C18004268846924F0807C2CF4E64C0C684CEAF9
:103C2800042423F020038D6843EA0513124DA842AB
:103C38000BD0124DA8420FD005F58065A8420BD0D5
:103C480005F58065A8420FD106E023F08003CD6812
:103C580043EA051323F0400322F440624D6942EA27
:103C680085028D6942EA8502426084614A688263FE
:103C7800036230BC704700BF002C01400040014087
:103C880038B590F83C30012B00F0958004460D467D
:103C9800012380F83C30142A00F28880DFE802F023
:103CA8000B8686861F86868634868686488686861E
:103CB8005D86868671000068FFF70AFE22689369B0
:103CC80043F0080393612268936923F00403936126
:103CD8002268936929690B439361002067E00068B3
:103CE800FFF790FF2268936943F4006393612268A9
:103CF800936923F48063936122689369296943EA8D
:103D080001239361002052E00068FFF727FE226834
:103D1800D36943F00803D3612268D36923F004030D
:103D2800D3612268D36929690B43D36100203EE03F
:103D38000068FFF751FE2268D36943F40063D3613A
:103D48002268D36923F48063D3612268D36929691F
:103D580043EA0123D361002029E00068FFF76EFEE3
:103D68002268536D43F0080353652268536D23F0AE
:103D7800040353652268536D29690B43536500207A
:103D880015E00068FFF78AFE2268536D43F400636C
:103D980053652268536D23F4806353652268536D1D
:103DA800296943EA01235365002000E0012000232C
:103DB80084F83C3038BD0220FCE701F01F014FF0C9
:103DC800010C0CFA01FC036A23EA0C030362036A80
:103DD8008A4013430362704710B5044610293CD843
:103DE800DFE801F0093B3B3B1F3B3B3B263B3B3BB2
:103DF8002D3B3B3B340090F83E30DBB2013B18BF13
:103E08000123002B40F0828010296DD8DFE801F0F3
:103E18002C6C6C6C5C6C6C6C606C6C6C646C6C6C3E
:103E2800680090F83F30DBB2013B18BF0123E8E798
:103E380090F84030DBB2013B18BF0123E1E790F86E
:103E48004130DBB2013B18BF0123DAE790F842307A
:103E5800DBB2013B18BF0123D3E790F84330DBB254
:103E6800013B18BF0123CCE7022384F83E3001222E
:103E78002068FFF7A2FF2368274A93420BD002F578
:103E8800A052934207D002F58062934203D002F514
:103E98008062934203D15A6C42F400425A64236808
:103EA8001D4A934224D0B3F1804F21D0A2F5943219
:103EB80093421DD002F59E32934219D01A6842F0FF
:103EC80001021A60002022E0022384F83F30CEE786
:103ED800022384F84030CAE7022384F84130C6E759
:103EE800022384F84230C2E7022384F84330BEE755
:103EF80099680A4A0A40062A0AD0B2F5803F09D0D2
:103F08001A6842F001021A60002000E0012010BD8A
:103F18000020FCE70020FAE7002C01400700010020
:103F280090F83C20012A33D030B40346012280F8AF
:103F38003C20022280F83D20006842688468154DC4
:103F4800A84220D022F070020D682A4342601A6805
:103F5800104882420AD0B2F1804F07D0A0F59430C1
:103F6800824203D000F59E30824204D124F08004BE
:103F7800896821439160012283F83D20002083F85D
:103F88003C0030BC704722F470024D682A43D9E7E0
:103F980002207047002C014030B40124056CAC406D
:103FA800C56B6C60046863604368102B05D00368B8
:103FB80099600368DA6030BC704703689A600368E8
:103FC800D960F8E70268054B1344054AA2FB0323AE
:103FD8001B099B000364034BC3637047F8FFFDBFD5
:103FE800CDCCCCCC0000024010B310B5044602235F
:103FF80080F8213001680A686FF30D124368806801
:104008000343E06803432069034360690343A069ED
:104018000343E069034313430B602046FFF7D2FFD5
:104028000020A063012384F8213084F8200010BD0B
:104038000120704738B5044690F82000012831D097
:10404800012084F8200094F82100012804D00023DE
:1040580084F82030022038BD022084F82100002096
:10406800A0632568286820F0010028602046FFF733
:1040780093FFE36A5BB12268136843F00E03136091
:104088002268136843F0010313600020E3E7226805
:10409800136843F00A0313602268136823F00403CB
:1040A8001360EDE70220D6E738B5C36B1A680468D9
:1040B8002568016C04238B40134213D015F0040FBC
:1040C80010D0236813F0200F03D1236823F00403D2
:1040D8002360016CC26B04238B405360C36A03B135
:1040E800984738BD02238B4013421AD015F0020FAF
:1040F80017D0236813F0200F06D1236823F00A0392
:104108002360012380F82130016CC26B02238B40AD
:104118005360002380F82030836A002BE1D0984751
:10412800DFE708238B401342DBD015F0080FD8D007
:10413800236823F00E032360026CC16B012303FA8A
:1041480002F24A60836380F82130002380F820302F
:10415800036B002BC5D09847C3E70000002808DB95
:104168000901C9B200F1604000F5614080F8001310
:10417800704700F00F000901C9B2014B195470478C
:1041880014ED00E000B500F00700C0F1070CBCF129
:10419800040F28BF4FF0040C031D062B0FD9C31EB4
:1041A8004FF0FF3E0EFA0CF021EA000199400EFA9A
:1041B80003FE22EA0E0241EA02005DF804FB002336
:1041C800EEE70000074AD36823F4E0631B041B0CE6
:1041D800000200F4E060034343F0BF6343F400339C
:1041E800D360704700ED00E010B50446054BD86871
:1041F800C0F30220FFF7C6FF01462046FFF7AEFFD7
:1042080010BD00BF00ED00E0002807DB00F01F0232
:10421800400901239340024A42F82030704700BF0A
:1042280000E100E00138B0F1807F0BD24FF0E023CD
:104238005861054AF02182F823100020986107226E
:104248001A6170470120704700ED00E0034AD2F878
:10425800883043F47003C2F88830704700ED00E0FE
:10426800002800F0A18038B5044690F82030D3B17A
:104278002268136843F001031360FEF73BFD05460F
:1042880023685A6812F0010F10D1FEF733FD401B66
:104298000A28F5D9636A43F400336362052384F876
:1042A8002030012038BDFDF77DF9E1E71A6822F0DA
:1042B80002021A60FEF71EFD054623685A6812F0CE
:1042C800020F0DD0FEF716FD401B0A28F5D9636AC8
:1042D80043F400336362052384F820300120E1E7CA
:1042E800227E012A3DD01A6822F080021A60637E7D
:1042F800012B3BD02268136823F040031360A37E90
:10430800012B39D02268136823F020031360E37E61
:10431800012B37D02268136843F010031360237F02
:10432800012B35D02268136823F008031360637FDC
:10433800012B33D02268136823F004031360A368A9
:10434800E268134322691343626913436268013ABE
:1043580021681343CB6100206062012384F8203078
:10436800A0E71A6842F080021A60C0E72268136862
:1043780043F040031360C2E72268136843F0200348
:104388001360C4E72268136823F010031360C6E7BC
:104398002268136843F008031360C8E722681368AB
:1043A80043F004031360CAE701207047026890F8DD
:1043B8002030013BDBB2012B05D9436A43F480234B
:1043C80043620120704730B4D2F8003243F0010351
:1043D800C2F800324B6903F01F03012000FA03F30F
:1043E800D2F81C026FEA030C20EA0300C2F81C0290
:1043F800C869B0B9D2F80C020CEA0000C2F80C0285
:104408008C884869CD6844EA0544483042F8304011
:104418000C8848698D6844EA0544483002EBC000BE
:104428004460C86901281BD0886980BBD2F804029F
:104438000CEA0000C2F80402086970BBD2F8140242
:104448000CEA0000C2F81402096A01292BD0D2F83C
:10445800003223F00103C2F80032002030BC70475C
:10446800D2F80C021843C2F80C028C8848690D680F
:1044780044EA0544483042F830408C8948698D68E0
:1044880044EA0544483002EBC0004460CCE7D2F867
:1044980004021843C2F80402CEE7D2F81402184303
:1044A800C2F81402D0E7D2F81C120B43C2F81C322F
:1044B800CDE770B5044690F82050EDB2012D06D036
:1044C800436A43F4002343620125284670BD022352
:1044D80080F820300268136823F001031360FEF7A8
:1044E80009FC064623685B6813F0010F0CD0FEF741
:1044F80001FC831B0A2BF5D9636A43F4003363621A
:10450800052384F82030E0E700256562DDE730B553
:1045180090F820C00468A4680CF1FF3C5FFA8CFC9A
:10452800BCF1010F62D814F0E05F59D0C4F3016CFC
:10453800012404FA0CF41C608B68002B3DD10D6833
:10454800CB68046843EA45550CF118031B01E55094
:1045580003680C690CF1180E03EB0E135C600B7DFD
:10456800012B35D0D17993791B0443EA0163517942
:1045780043EA012314790168234301EB0C11C1F8C4
:104588008C31D17893781B0443EA0163517843EA6C
:104598000123117802680B4302EB0C12C2F8883130
:1045A80002680CF1180C4FEA0C1C52F80C3043F05E
:1045B800010342F80C3000201DE04C6843EAC403B4
:1045C800CC6823430CF11804240105682B51BFE77C
:1045D800036803EB0E13596841F480715960C1E711
:1045E800436A43F400134362012004E0436A43F43E
:1045F80080234362012030BD90F82030013BDBB2BC
:10460800012B01D9002070470368986810F080607A
:1046180000D001209A6812F0006F00D001309B682A
:1046280013F0805FEFD001307047704770477047D4
:1046380070477047704770477047704770477047BA
:10464800704770472DE9F84F054603685C69D3F851
:1046580004809F68D3F80CA0D3F81090D3F818B052
:1046680014F001063BD017F0010616D001229A601B
:1046780017F0020F08D117F0040F0CD117F0080635
:1046880006D04FF4805608E0FFF7CFFF002604E07D
:10469800FFF7CEFF01E04FF4006617F4807F0DD0DE
:1046A8002B684FF480729A6017F4007F40F0968070
:1046B80017F4806F00F0968046F4005617F4803F98
:1046C8000DD02B684FF480329A6017F4003F40F009
:1046D800938017F4802F00F0938046F4004614F07E
:1046E800080F07D01AF0100F04D046F400762B6894
:1046F8001022DA6014F0040F03D01AF0080F40F00B
:10470800898014F0020F05D02B68DB6813F0030FC3
:1047180040F0878014F0400F07D019F0100F04D034
:1047280046F480662B6810221A6114F0200F02D01C
:1047380019F0080F79D114F0100F04D02B681B69F9
:1047480013F0030F78D114F4003F02D018F0100FC3
:1047580076D114F4803F02D018F0080F77D114F402
:10476800004F37D018F0040F31D014F4807F04D0F4
:104778001BF0010F01D046F0010614F4007F04D0AD
:104788001BF0020F01D046F0020614F4806F04D02B
:104798001BF0040F01D046F0040614F4006F16D085
:1047A8001BF0700B13D0BBF1400F66D056D8BBF18D
:1047B800200F5CD0BBF1300F5CD0BBF1100F01D1E2
:1047C80046F008062A68936923F0700393612B6802
:1047D80004225A60002E56D1BDE8F88F2846FFF70C
:1047E80025FF6BE717F4006F02D046F4804665E7B3
:1047F8002846FFF71EFF61E72846FFF718FF6EE718
:1048080017F4002F02D046F4803668E72846FFF7F1
:1048180011FF64E72B680822DA602846FFF70CFFCF
:104828006FE72846FFF707FF74E72B6808221A612D
:104838002846FFF703FF7EE72846FFF7FEFE82E7DC
:104848002B6810225A602846FFF7F9FE81E72B688B
:1048580008225A602846FFF7F3FE80E7BBF1500FA5
:104868000ED0BBF1600FADD146F48076AAE746F0D2
:104878001006A7E746F02006A4E746F04006A1E7A1
:1048880046F080069EE76B6A33436B622846FFF763
:10489800D8FEA1E710B40468226822F007028B68EA
:1048A800134323F01803CA681A43226003680A688E
:1048B8005A6103684A689A615DF8044B704730B5DD
:1048C800046801F1010C4FEACC1C54F80C3023F0B9
:1048D800070E936843EA0E0323F01803D5682B43A9
:1048E80044F80C300368146803EBC113C3F8944010
:1048F8000368526803EBC113C3F8982030BD30B485
:1049080004682268D4F8A05322F020024B691343AC
:1049180023F400628B69134323F48062CB69134349
:1049280023F0C0620B6A134323F000624B6A1343FF
:1049380023F040438A6A43EA820323F000530A6B58
:104948001A4325F48035CB6A1D4322600368C3F8F7
:10495800A05330BC70472DE9F04105684B1CDB01C2
:10496800EC5824F07044EC500668F35806EBC11478
:10497800D4F8E880D4F8E440D6F8A05323F0200C0B
:10498800536943EA0C0323F4006C936943EA0C036C
:1049980023F4806CD36943EA0C0323F0C06C136AD8
:1049A80043EA0C0323F0006C536A43EA0C0323F038
:1049B800704C936A43EA0C0323F40033176BB7F186
:1049C800005F32D023F04003D2F834C04CEA03032E
:1049D80023F48023176D47EA030E2EF0FC7E936CB8
:1049E80043EA0E0E28F01F07936B03F01F033B43A7
:1049F80023F00043D76B3B43BCF1000F03D124F4F1
:104A08008074176C3C43576CB7F5606F10D0B7F5DE
:104A1800F05F0DD024F4F0543C43D76C042910D82F
:104A2800DFE801F00A272D33390043F40033C9E7E2
:104A3800BCF1400FF1D1EDE725F40035D26A45EA23
:104A480042054A1CD20146F802E0026802EBC11294
:104A5800C2F8E830036803EBC113C3F8E440036805
:104A680003EBC113C3F8D4700368C3F8A053BDE8BF
:104A7800F08125F48025D26A45EA8205E1E725F42C
:104A88000025D26A45EAC205DBE725F48015D26A1B
:104A980045EA0215D5E725F40015D26A45EA42151C
:104AA800CFE70000F0B4046804EBC115D5F8E46062
:104AB800D5F8B850202A13D8022A0DD3023A4FF05D
:104AC800010C0CFA02F22F4F3A4216D144F20407B5
:104AD8003A4221D100222BE0012A1DD0002227E0F2
:104AE800B2F5807F18D005D8402A15D0802A04D086
:104AF80000221DE0B2F5007F0CD15A6804EBC11406
:104B0800C4F8C42002689C6802EBC112C2F8C8400D
:104B180010220DE000220BE05A6804EBC114C4F81F
:104B2800BC2002689C6802EBC112C2F8C040002297
:104B3800FE24944026EA04061C68944044EA060CC5
:104B4800DC68944044EA0C041E6906FA02FC4CEA4C
:104B5800040C5C69944044EA0C0C9C69944044EA57
:104B68000C04082E06D0036803EBC113C3F8E44015
:104B7800F0BC704715F0022FF5D1DB6993401C4358
:104B8800F1E700BF41000040052933D8DFE801F014
:104B98000B131B232B030268D2F8843343F0010361
:104BA800C2F8843370470268D2F8843343F00203B2
:104BB800C2F8843370470268D2F8843343F00403A0
:104BC800C2F8843370470268D2F8843343F008038C
:104BD800C2F8843370470268D2F8843343F0100374
:104BE800C2F8843370470268D2F8843343F0200354
:104BF800C2F8843370470000002862D010B582B034
:104C08000446022380F8C1300023C0F8C430C0F83D
:104C1800C830C0F8CC30C0F8D030C0F8D430C0F8B4
:104C2800D830836813F0010F12D00268264B9A42DD
:104C380025D021680A6822F44042236903F44043DE
:104C4800134323F44053626902F440521A430A6042
:104C58002046FCF7E5FCA36813F0020F08D0216892
:104C68000A6822F44072E36803F4407313430B604C
:104C7800012384F8C130002384F8C0301CE003F518
:104C88001C439A6942F000529A619B6903F00053F1
:104C98000193019BCDE7C3EBC30204EB8202002121
:104CA8009161D161116251629162C3EBC30204EB5D
:104CB800820211630133DBB2052BECD9002002B06C
:104CC80010BD0120704700BF0074014090F8C0304B
:104CD800012B32D0012380F8C030022380F8C13084
:104CE800B1F1FF3F1AD00268D2F8CC3343F0020387
:104CF800C2F8CC330268D2F8CC3323F00C030B4350
:104D0800C2F8CC330268D2F8CC3343F00103C2F8BE
:104D1800CC33012380F8C130002070470268D2F8F4
:104D2800CC3323F00203C2F8CC330268D2F8CC3378
:104D380043F00103C2F8CC33EBE70220704770B5AB
:104D480004460D46FDF7D6FF06462368D3F8883398
:104D580013F4803F0ED1B5F1FF3FF6D0FDF7CAFF3F
:104D6800801BA84201D8002DEFD1072384F8C13059
:104D7800032005E0012384F8C130002084F8C00036
:104D880070BD10B5044690F8C100C0B202280BD01F
:104D9800022384F8C130052907D02046FFF78FFD8C
:104DA800012384F8C130002010BD11462046FFF7CA
:104DB80071FDF5E7034690F8C100C0B202285CD047
:104DC80093F8C000012854D010B4012083F8C00023
:104DD800022083F8C1001C68D4F880030139072930
:104DE80040D8DFE801F0041E3F293F3F3F3420F45C
:104DF800E020116801F4E02108435268C4F8BC239C
:104E080093F8C120D2B2072A35D01A68C2F88003B5
:104E1800012283F8C120002083F8C0005DF8044B0C
:104E2800704720F460101168C90001F4601108434C
:104E38005268C4F8C023E3E720F0E07011688901E4
:104E480001F0E07108435268C4F8C423D8E720F0A1
:104E580060601168490201F0606108435268C4F853
:104E6800C823CDE7072283F8C120002283F8C02099
:104E7800C6E7022070470120D0E7704770B50446A6
:104E880090F8C100C0B2022828D00E46154694F802
:104E9800C030012B28D0012384F8C030022384F8C5
:104EA800C13005291BD02046FFF755FD2A68C6EBFF
:104EB800C60304EB83031A626A685A62AA689A6294
:104EC800EA68DA622A691A6331462046FFF75CFE0F
:104ED800012384F8C130002084F8C00070BD114659
:104EE8002046FFF70CFDE1E70220F7E7034690F8BC
:104EF800C100C0B2022845D093F8C00001283FD0B5
:104F080030B54FF0010E83F8C0E0022083F8C100ED
:104F1800106800F4E0545068C0F308000443906837
:104F280000F400700443106900F480400443D06822
:104F380000F4004004431448556900EA054C4CEA63
:104F4800040C906900F0007040EA0C0C106A00F044
:104F5800804040EA0C0CD06900F0004040EA0C00A8
:104F68001A6802EBC111D1F8B840084A224002433E
:104F7800C1F8B82083F8C1E0002083F8C00030BD34
:104F880002207047704700BF0000FF010020003C6E
:104F9800844690F8C100C0B2022800F0D9809CF87D
:104FA800C000012800F0D08030B401208CF8C00087
:104FB80002208CF8C100052909D0013A072A00F21D
:104FC800BC80DFE802F02E43BA7ABABABA82013A54
:104FD800072A1FD8DFE802F0040F1E141E1E1E1930
:104FE800DCF800201B68D3619CF8C130DBB2072BCA
:104FF80024D1012028E0DCF800201B685362F3E785
:10500800DCF800201B689362EEE7DCF800201B68E0
:10501800D362E9E707238CF8C13000238CF8C0304D
:10502800E2E7DCF800201B6802EBC112C2F89C30F2
:105038009CF8C130DBB2072B00F0888001238CF884
:10504800C13000208CF8C00030BC7047DCF800206C
:10505800186802EBC112C2F8A4005A6822B3DCF83F
:1050680000404A1CD201A05820F44050A050DCF85F
:105078000040A0585D682843A0505A68B2F5005F08
:105088000AD0B2F5405FD3D1DCF800209B6802EB70
:10509800C112C2F8A830CBE7DCF800209B6802EB0D
:1050A800C112C2F89C30C3E7DCF800200131C90105
:1050B800535823F440535350BAE7DCF800201B68D8
:1050C80002EBC112C2F8A830B2E7DCF80020186879
:1050D80002EBC112C2F8AC005A682AB3DCF80040EF
:1050E8004A1CD201A05820F44040A050DCF80040EF
:1050F800A0585D6840EA8500A0505A68B2F5005F84
:105108000AD0B2F5405F93D1DCF800209B6802EB2F
:10511800C112C2F8A8308BE7DCF800209B6802EBCC
:10512800C112C2F89C3083E7DCF800200131C901C4
:10513800535823F4404353507AE707238CF8C1307F
:1051480000238CF8C03073E70220704701207BE70A
:10515800704738B5044690F8C100C0B2022811D093
:1051680094F8C00001280ED0012584F8C050022010
:1051780084F8C1002046FFF795FC84F8C150002050
:1051880084F8C00038BD0220FCE790F8C030012B3D
:1051980015D010B4012280F8C020022380F8C13055
:1051A8000468D4F894330B43C4F8943380F8C120CE
:1051B800002380F8C03018465DF8044B7047022081
:1051C800704790F8C030012B15D010B4012280F838
:1051D800C020022380F8C1300468D4F898330B4308
:1051E800C4F8983380F8C120002380F8C0301846EE
:1051F8005DF8044B70470220704790F8C030012BCF
:1052080013D010B4012280F8C020022380F8C130E6
:10521800046823680B43236080F8C120002380F8CA
:10522800C03018465DF8044B7047022070470000F4
:10523800DFF834D0FFF70AF80C480D490D4A00236F
:1052480002E0D458C4500433C4188C42F9D30A4A33
:105258000A4C002301E013600432A242FBD3FAF7A0
:10526800E7FFFBF78DFEFEE700300020000000207E
:1052780060000020E0520008600000209405002033
:10528800FEE70000F8B500BFF8BC08BC9E467047B2
:0C529800F8B500BFF8BC08BC9E4670478B
:1052A4000102030405060708090A0B0C0D0E0F1072
:1052B40002030405060708090A0B0C0D0E0F101053
:1052C40000000000000000000102030406070809B2
:0452D40000000000D6
:0452D800250900089C
:0452DC0001090008BC
:1052E000040000200000000060000020C800002032
:1052F000300100200000000000000000000000005D
:10530000000000000000000000000000000000009D
:10531000000000000000000000000000000000008D
:10532000000000000000000000000000000000007D
:10533000CDCC4C3D050100001000000000127A00A9
:040000050800523964
:00000001FF
